{
  "contractName": "TodoContract",
  "abi": [
    {
      "anonymous": false,
      "inputs": [
        {
          "indexed": false,
          "internalType": "uint256",
          "name": "id",
          "type": "uint256"
        },
        {
          "indexed": false,
          "internalType": "string",
          "name": "name",
          "type": "string"
        }
      ],
      "name": "TaskCreated",
      "type": "event"
    },
    {
      "anonymous": false,
      "inputs": [
        {
          "indexed": false,
          "internalType": "uint256",
          "name": "id",
          "type": "uint256"
        }
      ],
      "name": "TaskDeleted",
      "type": "event"
    },
    {
      "anonymous": false,
      "inputs": [
        {
          "indexed": false,
          "internalType": "uint256",
          "name": "id",
          "type": "uint256"
        },
        {
          "indexed": false,
          "internalType": "string",
          "name": "name",
          "type": "string"
        },
        {
          "indexed": false,
          "internalType": "bool",
          "name": "isComplete",
          "type": "bool"
        }
      ],
      "name": "TaskIsCompleteToggled",
      "type": "event"
    },
    {
      "anonymous": false,
      "inputs": [
        {
          "indexed": false,
          "internalType": "uint256",
          "name": "id",
          "type": "uint256"
        },
        {
          "indexed": false,
          "internalType": "string",
          "name": "name",
          "type": "string"
        }
      ],
      "name": "TaskUpdated",
      "type": "event"
    },
    {
      "inputs": [
        {
          "internalType": "uint256",
          "name": "",
          "type": "uint256"
        }
      ],
      "name": "todos",
      "outputs": [
        {
          "internalType": "uint256",
          "name": "id",
          "type": "uint256"
        },
        {
          "internalType": "string",
          "name": "name",
          "type": "string"
        },
        {
          "internalType": "bool",
          "name": "isComplete",
          "type": "bool"
        }
      ],
      "stateMutability": "view",
      "type": "function",
      "constant": true
    },
    {
      "inputs": [],
      "name": "totalTasksCount",
      "outputs": [
        {
          "internalType": "uint256",
          "name": "",
          "type": "uint256"
        }
      ],
      "stateMutability": "view",
      "type": "function",
      "constant": true
    },
    {
      "inputs": [
        {
          "internalType": "string",
          "name": "_name",
          "type": "string"
        }
      ],
      "name": "createTask",
      "outputs": [],
      "stateMutability": "nonpayable",
      "type": "function"
    },
    {
      "inputs": [
        {
          "internalType": "uint256",
          "name": "_id",
          "type": "uint256"
        },
        {
          "internalType": "string",
          "name": "_name",
          "type": "string"
        }
      ],
      "name": "updateTask",
      "outputs": [],
      "stateMutability": "nonpayable",
      "type": "function"
    },
    {
      "inputs": [
        {
          "internalType": "uint256",
          "name": "_id",
          "type": "uint256"
        }
      ],
      "name": "toggleTaskIsComplete",
      "outputs": [],
      "stateMutability": "nonpayable",
      "type": "function"
    },
    {
      "inputs": [
        {
          "internalType": "uint256",
          "name": "_id",
          "type": "uint256"
        }
      ],
      "name": "deleteTask",
      "outputs": [],
      "stateMutability": "nonpayable",
      "type": "function"
    }
  ],
  "bytecode": "0x60806040526000805534801561001457600080fd5b50610ddf806100246000396000f3fe608060405234801561001057600080fd5b50600436106100625760003560e01c8063111002aa14610067578063269945661461008357806331ff3e59146100a1578063560f3192146100bd57806386533f6c146100d9578063bc8bc2b4146100f5575b600080fd5b610081600480360381019061007c919061081a565b610127565b005b61008b6101f7565b604051610098919061087c565b60405180910390f35b6100bb60048036038101906100b691906108c3565b6101fd565b005b6100d760048036038101906100d291906108c3565b61039a565b005b6100f360048036038101906100ee91906108f0565b610416565b005b61010f600480360381019061010a91906108c3565b6105a4565b60405161011e939291906109e6565b60405180910390f35b60008054905060405180606001604052806000548152602001838152602001600015158152506001600083815260200190815260200160002060008201518160000155602082015181600101908161017f9190610c30565b5060408201518160020160006101000a81548160ff0219169083151502179055509050506000808154809291906101b590610d31565b91905055507fa5ed9e6226c584326505694539c95cb0e3238ae09bcda5a65c00bbfdab1c666281836040516101eb929190610d79565b60405180910390a15050565b60005481565b6000600160008381526020019081526020016000206040518060600160405290816000820154815260200160018201805461023790610a53565b80601f016020809104026020016040519081016040528092919081815260200182805461026390610a53565b80156102b05780601f10610285576101008083540402835291602001916102b0565b820191906000526020600020905b81548152906001019060200180831161029357829003601f168201915b505050505081526020016002820160009054906101000a900460ff161515151581525050905060405180606001604052808381526020018260200151815260200182604001511515158152506001600084815260200190815260200160002060008201518160000155602082015181600101908161032e9190610c30565b5060408201518160020160006101000a81548160ff0219169083151502179055509050507f48528f68720f650df0644c69c29b0fdf87de44fe198fcc75767a295adb6d648682826020015183604001511560405161038e939291906109e6565b60405180910390a15050565b600160008281526020019081526020016000206000808201600090556001820160006103c69190610663565b6002820160006101000a81549060ff021916905550507fd078b251d950cc55c44340be1db732337ef4939a76e1367ee271ad2cb19c46af8160405161040b919061087c565b60405180910390a150565b6000600160008481526020019081526020016000206040518060600160405290816000820154815260200160018201805461045090610a53565b80601f016020809104026020016040519081016040528092919081815260200182805461047c90610a53565b80156104c95780601f1061049e576101008083540402835291602001916104c9565b820191906000526020600020905b8154815290600101906020018083116104ac57829003601f168201915b505050505081526020016002820160009054906101000a900460ff1615151515815250509050604051806060016040528084815260200183815260200182604001511515815250600160008581526020019081526020016000206000820151816000015560208201518160010190816105429190610c30565b5060408201518160020160006101000a81548160ff0219169083151502179055509050507fde038a66d64727fc277f5f5f3d50b98d205e4ae705bfb8ac824cea4877b9be498383604051610597929190610d79565b60405180910390a1505050565b60016020528060005260406000206000915090508060000154908060010180546105cd90610a53565b80601f01602080910402602001604051908101604052809291908181526020018280546105f990610a53565b80156106465780601f1061061b57610100808354040283529160200191610646565b820191906000526020600020905b81548152906001019060200180831161062957829003601f168201915b5050505050908060020160009054906101000a900460ff16905083565b50805461066f90610a53565b6000825580601f1061068157506106a0565b601f01602090049060005260206000209081019061069f91906106a3565b5b50565b5b808211156106bc5760008160009055506001016106a4565b5090565b6000604051905090565b600080fd5b600080fd5b600080fd5b600080fd5b6000601f19601f8301169050919050565b7f4e487b7100000000000000000000000000000000000000000000000000000000600052604160045260246000fd5b610727826106de565b810181811067ffffffffffffffff82111715610746576107456106ef565b5b80604052505050565b60006107596106c0565b9050610765828261071e565b919050565b600067ffffffffffffffff821115610785576107846106ef565b5b61078e826106de565b9050602081019050919050565b82818337600083830152505050565b60006107bd6107b88461076a565b61074f565b9050828152602081018484840111156107d9576107d86106d9565b5b6107e484828561079b565b509392505050565b600082601f830112610801576108006106d4565b5b81356108118482602086016107aa565b91505092915050565b6000602082840312156108305761082f6106ca565b5b600082013567ffffffffffffffff81111561084e5761084d6106cf565b5b61085a848285016107ec565b91505092915050565b6000819050919050565b61087681610863565b82525050565b6000602082019050610891600083018461086d565b92915050565b6108a081610863565b81146108ab57600080fd5b50565b6000813590506108bd81610897565b92915050565b6000602082840312156108d9576108d86106ca565b5b60006108e7848285016108ae565b91505092915050565b60008060408385031215610907576109066106ca565b5b6000610915858286016108ae565b925050602083013567ffffffffffffffff811115610936576109356106cf565b5b610942858286016107ec565b9150509250929050565b600081519050919050565b600082825260208201905092915050565b60005b8381101561098657808201518184015260208101905061096b565b60008484015250505050565b600061099d8261094c565b6109a78185610957565b93506109b7818560208601610968565b6109c0816106de565b840191505092915050565b60008115159050919050565b6109e0816109cb565b82525050565b60006060820190506109fb600083018661086d565b8181036020830152610a0d8185610992565b9050610a1c60408301846109d7565b949350505050565b7f4e487b7100000000000000000000000000000000000000000000000000000000600052602260045260246000fd5b60006002820490506001821680610a6b57607f821691505b602082108103610a7e57610a7d610a24565b5b50919050565b60008190508160005260206000209050919050565b60006020601f8301049050919050565b600082821b905092915050565b600060088302610ae67fffffffffffffffffffffffffffffffffffffffffffffffffffffffffffffffff82610aa9565b610af08683610aa9565b95508019841693508086168417925050509392505050565b6000819050919050565b6000610b2d610b28610b2384610863565b610b08565b610863565b9050919050565b6000819050919050565b610b4783610b12565b610b5b610b5382610b34565b848454610ab6565b825550505050565b600090565b610b70610b63565b610b7b818484610b3e565b505050565b5b81811015610b9f57610b94600082610b68565b600181019050610b81565b5050565b601f821115610be457610bb581610a84565b610bbe84610a99565b81016020851015610bcd578190505b610be1610bd985610a99565b830182610b80565b50505b505050565b600082821c905092915050565b6000610c0760001984600802610be9565b1980831691505092915050565b6000610c208383610bf6565b9150826002028217905092915050565b610c398261094c565b67ffffffffffffffff811115610c5257610c516106ef565b5b610c5c8254610a53565b610c67828285610ba3565b600060209050601f831160018114610c9a5760008415610c88578287015190505b610c928582610c14565b865550610cfa565b601f198416610ca886610a84565b60005b82811015610cd057848901518255600182019150602085019450602081019050610cab565b86831015610ced5784890151610ce9601f891682610bf6565b8355505b6001600288020188555050505b505050505050565b7f4e487b7100000000000000000000000000000000000000000000000000000000600052601160045260246000fd5b6000610d3c82610863565b91507fffffffffffffffffffffffffffffffffffffffffffffffffffffffffffffffff8203610d6e57610d6d610d02565b5b600182019050919050565b6000604082019050610d8e600083018561086d565b8181036020830152610da08184610992565b9050939250505056fea26469706673582212205c9ae6c8b26b096805e427c94fa776418118cf4d91e22a7d20e52dca72909b0b64736f6c63430008110033",
  "immutableReferences": {},
  "source": "// TodoContract.sol\n// SPDX-License-Identifier: GPL-3.0\npragma solidity ^0.8.9.0;\n\ncontract TodoContract {\n  uint256 public totalTasksCount = 0;\n\n  struct Task {\n    uint256 id;\n    string name;\n    bool isComplete;\n  }\n\n  mapping(uint256 => Task) public todos;\n\n  event TaskCreated(uint256 id, string name);\n  event TaskUpdated(uint256 id, string name);\n  event TaskIsCompleteToggled(uint256 id, string name, bool isComplete);\n  event TaskDeleted(uint256 id);\n\n  function createTask(string memory _name) public {\n    uint256 id = totalTasksCount;\n    todos[id] = Task(totalTasksCount, _name, false);\n    totalTasksCount++;\n    emit TaskCreated(id, _name);\n  }\n\n  function updateTask(uint256 _id, string memory _name) public {\n    Task memory currentTask = todos[_id];\n    todos[_id] = Task(_id, _name, currentTask.isComplete);\n    emit TaskUpdated(_id, _name);\n  }\n\n  function toggleTaskIsComplete(uint256 _id) public {\n    Task memory currentTask = todos[_id];\n    todos[_id] = Task(_id, currentTask.name, !currentTask.isComplete);\n    emit TaskIsCompleteToggled(\n      _id,\n      currentTask.name,\n      !currentTask.isComplete\n    );\n  }\n\n  function deleteTask(uint256 _id) public {\n    delete todos[_id];\n    emit TaskDeleted(_id);\n  }\n}\n",
  "sourcePath": "/Users/aya_nakagawa/web3/todo-dApp/todo-dApp-contract/contracts/TodoContract.sol",
  "compiler": {
    "name": "solc",
    "version": "0.8.17+commit.8df45f5f.Emscripten.clang"
  },
  "schemaVersion": "3.4.10",
  "updatedAt": "2022-10-21T20:33:53.906Z",
  "networkType": "ethereum",
  "devdoc": {
    "kind": "dev",
    "methods": {},
    "version": 1
  },
  "userdoc": {
    "kind": "user",
    "methods": {},
    "version": 1
  }
}