{
  "contractName": "TodoContract",
  "abi": [
    {
      "anonymous": false,
      "inputs": [
        {
          "indexed": false,
          "internalType": "uint256",
          "name": "id",
          "type": "uint256"
        },
        {
          "indexed": false,
          "internalType": "string",
          "name": "name",
          "type": "string"
        }
      ],
      "name": "TaskCreated",
      "type": "event"
    },
    {
      "anonymous": false,
      "inputs": [
        {
          "indexed": false,
          "internalType": "uint256",
          "name": "id",
          "type": "uint256"
        }
      ],
      "name": "TaskDeleted",
      "type": "event"
    },
    {
      "anonymous": false,
      "inputs": [
        {
          "indexed": false,
          "internalType": "uint256",
          "name": "id",
          "type": "uint256"
        },
        {
          "indexed": false,
          "internalType": "string",
          "name": "name",
          "type": "string"
        },
        {
          "indexed": false,
          "internalType": "bool",
          "name": "isComplete",
          "type": "bool"
        }
      ],
      "name": "TaskIsCompleteToggled",
      "type": "event"
    },
    {
      "anonymous": false,
      "inputs": [
        {
          "indexed": false,
          "internalType": "uint256",
          "name": "id",
          "type": "uint256"
        },
        {
          "indexed": false,
          "internalType": "string",
          "name": "name",
          "type": "string"
        }
      ],
      "name": "TaskUpdated",
      "type": "event"
    },
    {
      "inputs": [
        {
          "internalType": "uint256",
          "name": "",
          "type": "uint256"
        }
      ],
      "name": "todos",
      "outputs": [
        {
          "internalType": "uint256",
          "name": "id",
          "type": "uint256"
        },
        {
          "internalType": "string",
          "name": "name",
          "type": "string"
        },
        {
          "internalType": "bool",
          "name": "isComplete",
          "type": "bool"
        }
      ],
      "stateMutability": "view",
      "type": "function",
      "constant": true
    },
    {
      "inputs": [],
      "name": "totalTasksCount",
      "outputs": [
        {
          "internalType": "uint256",
          "name": "",
          "type": "uint256"
        }
      ],
      "stateMutability": "view",
      "type": "function",
      "constant": true
    },
    {
      "inputs": [
        {
          "internalType": "string",
          "name": "_name",
          "type": "string"
        }
      ],
      "name": "createTask",
      "outputs": [],
      "stateMutability": "nonpayable",
      "type": "function"
    },
    {
      "inputs": [
        {
          "internalType": "uint256",
          "name": "_id",
          "type": "uint256"
        },
        {
          "internalType": "string",
          "name": "_name",
          "type": "string"
        }
      ],
      "name": "updateTask",
      "outputs": [],
      "stateMutability": "nonpayable",
      "type": "function"
    },
    {
      "inputs": [
        {
          "internalType": "uint256",
          "name": "_id",
          "type": "uint256"
        }
      ],
      "name": "toggleTaskIsComplete",
      "outputs": [],
      "stateMutability": "nonpayable",
      "type": "function"
    },
    {
      "inputs": [
        {
          "internalType": "uint256",
          "name": "_id",
          "type": "uint256"
        }
      ],
      "name": "deleteTask",
      "outputs": [],
      "stateMutability": "nonpayable",
      "type": "function"
    }
  ],
  "bytecode": "0x60806040526000805534801561001457600080fd5b50610c07806100246000396000f3fe608060405234801561001057600080fd5b50600436106100625760003560e01c8063111002aa14610067578063269945661461008357806331ff3e59146100a1578063560f3192146100bd57806386533f6c146100d9578063bc8bc2b4146100f5575b600080fd5b610081600480360381019061007c91906108b5565b610127565b005b61008b6101fe565b6040516100989190610917565b60405180910390f35b6100bb60048036038101906100b6919061095e565b610204565b005b6100d760048036038101906100d2919061095e565b6103a8565b005b6100f360048036038101906100ee919061098b565b610424565b005b61010f600480360381019061010a919061095e565b6105b9565b60405161011e93929190610a8a565b60405180910390f35b600080549050604051806060016040528060005481526020018381526020016000151581525060016000838152602001908152602001600020600082015181600001556020820151816001019080519060200190610186929190610678565b5060408201518160020160006101000a81548160ff0219169083151502179055509050506000808154809291906101bc90610af7565b91905055507fa5ed9e6226c584326505694539c95cb0e3238ae09bcda5a65c00bbfdab1c666281836040516101f2929190610b40565b60405180910390a15050565b60005481565b6000600160008381526020019081526020016000206040518060600160405290816000820154815260200160018201805461023e90610b9f565b80601f016020809104026020016040519081016040528092919081815260200182805461026a90610b9f565b80156102b75780601f1061028c576101008083540402835291602001916102b7565b820191906000526020600020905b81548152906001019060200180831161029a57829003601f168201915b505050505081526020016002820160009054906101000a900460ff161515151581525050905060405180606001604052808381526020018260200151815260200182604001511515158152506001600084815260200190815260200160002060008201518160000155602082015181600101908051906020019061033c929190610678565b5060408201518160020160006101000a81548160ff0219169083151502179055509050507f48528f68720f650df0644c69c29b0fdf87de44fe198fcc75767a295adb6d648682826020015183604001511560405161039c93929190610a8a565b60405180910390a15050565b600160008281526020019081526020016000206000808201600090556001820160006103d491906106fe565b6002820160006101000a81549060ff021916905550507fd078b251d950cc55c44340be1db732337ef4939a76e1367ee271ad2cb19c46af816040516104199190610917565b60405180910390a150565b6000600160008481526020019081526020016000206040518060600160405290816000820154815260200160018201805461045e90610b9f565b80601f016020809104026020016040519081016040528092919081815260200182805461048a90610b9f565b80156104d75780601f106104ac576101008083540402835291602001916104d7565b820191906000526020600020905b8154815290600101906020018083116104ba57829003601f168201915b505050505081526020016002820160009054906101000a900460ff161515151581525050905060405180606001604052808481526020018381526020018260400151151581525060016000858152602001908152602001600020600082015181600001556020820151816001019080519060200190610557929190610678565b5060408201518160020160006101000a81548160ff0219169083151502179055509050507fde038a66d64727fc277f5f5f3d50b98d205e4ae705bfb8ac824cea4877b9be4983836040516105ac929190610b40565b60405180910390a1505050565b60016020528060005260406000206000915090508060000154908060010180546105e290610b9f565b80601f016020809104026020016040519081016040528092919081815260200182805461060e90610b9f565b801561065b5780601f106106305761010080835404028352916020019161065b565b820191906000526020600020905b81548152906001019060200180831161063e57829003601f168201915b5050505050908060020160009054906101000a900460ff16905083565b82805461068490610b9f565b90600052602060002090601f0160209004810192826106a657600085556106ed565b82601f106106bf57805160ff19168380011785556106ed565b828001600101855582156106ed579182015b828111156106ec5782518255916020019190600101906106d1565b5b5090506106fa919061073e565b5090565b50805461070a90610b9f565b6000825580601f1061071c575061073b565b601f01602090049060005260206000209081019061073a919061073e565b5b50565b5b8082111561075757600081600090555060010161073f565b5090565b6000604051905090565b600080fd5b600080fd5b600080fd5b600080fd5b6000601f19601f8301169050919050565b7f4e487b7100000000000000000000000000000000000000000000000000000000600052604160045260246000fd5b6107c282610779565b810181811067ffffffffffffffff821117156107e1576107e061078a565b5b80604052505050565b60006107f461075b565b905061080082826107b9565b919050565b600067ffffffffffffffff8211156108205761081f61078a565b5b61082982610779565b9050602081019050919050565b82818337600083830152505050565b600061085861085384610805565b6107ea565b90508281526020810184848401111561087457610873610774565b5b61087f848285610836565b509392505050565b600082601f83011261089c5761089b61076f565b5b81356108ac848260208601610845565b91505092915050565b6000602082840312156108cb576108ca610765565b5b600082013567ffffffffffffffff8111156108e9576108e861076a565b5b6108f584828501610887565b91505092915050565b6000819050919050565b610911816108fe565b82525050565b600060208201905061092c6000830184610908565b92915050565b61093b816108fe565b811461094657600080fd5b50565b60008135905061095881610932565b92915050565b60006020828403121561097457610973610765565b5b600061098284828501610949565b91505092915050565b600080604083850312156109a2576109a1610765565b5b60006109b085828601610949565b925050602083013567ffffffffffffffff8111156109d1576109d061076a565b5b6109dd85828601610887565b9150509250929050565b600081519050919050565b600082825260208201905092915050565b60005b83811015610a21578082015181840152602081019050610a06565b83811115610a30576000848401525b50505050565b6000610a41826109e7565b610a4b81856109f2565b9350610a5b818560208601610a03565b610a6481610779565b840191505092915050565b60008115159050919050565b610a8481610a6f565b82525050565b6000606082019050610a9f6000830186610908565b8181036020830152610ab18185610a36565b9050610ac06040830184610a7b565b949350505050565b7f4e487b7100000000000000000000000000000000000000000000000000000000600052601160045260246000fd5b6000610b02826108fe565b91507fffffffffffffffffffffffffffffffffffffffffffffffffffffffffffffffff821415610b3557610b34610ac8565b5b600182019050919050565b6000604082019050610b556000830185610908565b8181036020830152610b678184610a36565b90509392505050565b7f4e487b7100000000000000000000000000000000000000000000000000000000600052602260045260246000fd5b60006002820490506001821680610bb757607f821691505b60208210811415610bcb57610bca610b70565b5b5091905056fea2646970667358221220b1128a0dba57b72021353e6285e043e7f72b5671c46120ca2f0f3f0c392aa0f964736f6c63430008090033",
  "immutableReferences": {},
  "source": "// TodoContract.sol\n// SPDX-License-Identifier: GPL-3.0\npragma solidity ^0.8.9.0;\n\ncontract TodoContract {\n  uint256 public totalTasksCount = 0;\n\n  struct Task {\n    uint256 id;\n    string name;\n    bool isComplete;\n  }\n\n  mapping(uint256 => Task) public todos;\n\n  event TaskCreated(uint256 id, string name);\n  event TaskUpdated(uint256 id, string name);\n  event TaskIsCompleteToggled(uint256 id, string name, bool isComplete);\n  event TaskDeleted(uint256 id);\n\n  function createTask(string memory _name) public {\n    uint256 id = totalTasksCount;\n    todos[id] = Task(totalTasksCount, _name, false);\n    totalTasksCount++;\n    emit TaskCreated(id, _name);\n  }\n\n  function updateTask(uint256 _id, string memory _name) public {\n    Task memory currentTask = todos[_id];\n    todos[_id] = Task(_id, _name, currentTask.isComplete);\n    emit TaskUpdated(_id, _name);\n  }\n\n  function toggleTaskIsComplete(uint256 _id) public {\n    Task memory currentTask = todos[_id];\n    todos[_id] = Task(_id, currentTask.name, !currentTask.isComplete);\n    emit TaskIsCompleteToggled(\n      _id,\n      currentTask.name,\n      !currentTask.isComplete\n    );\n  }\n\n  function deleteTask(uint256 _id) public {\n    delete todos[_id];\n    emit TaskDeleted(_id);\n  }\n}\n",
  "sourcePath": "/Users/aya_nakagawa/web3/todo-dApp/todo-dApp-contract/contracts/TodoContract.sol",
  "compiler": {
    "name": "solc",
    "version": "0.8.9+commit.e5eed63a.Emscripten.clang"
  },
  "schemaVersion": "3.4.10",
  "updatedAt": "2022-10-22T13:22:17.420Z",
  "networkType": "ethereum",
  "devdoc": {
    "kind": "dev",
    "methods": {},
    "version": 1
  },
  "userdoc": {
    "kind": "user",
    "methods": {},
    "version": 1
  }
}